{
  "contractName": "ExerciseC6CApp",
  "abi": [
    {
      "inputs": [
        {
          "internalType": "address",
          "name": "dataContract",
          "type": "address"
        }
      ],
      "payable": false,
      "stateMutability": "nonpayable",
      "type": "constructor"
    },
    {
      "constant": false,
      "inputs": [
        {
          "internalType": "string",
          "name": "id",
          "type": "string"
        },
        {
          "internalType": "uint256",
          "name": "amount",
          "type": "uint256"
        }
      ],
      "name": "addSale",
      "outputs": [],
      "payable": false,
      "stateMutability": "nonpayable",
      "type": "function"
    }
  ],
  "bytecode": "0x608060405234801561001057600080fd5b5060405161066e38038061066e8339818101604052602081101561003357600080fd5b8101908080519060200190929190505050336000806101000a81548173ffffffffffffffffffffffffffffffffffffffff021916908373ffffffffffffffffffffffffffffffffffffffff16021790555080600160006101000a81548173ffffffffffffffffffffffffffffffffffffffff021916908373ffffffffffffffffffffffffffffffffffffffff16021790555050610599806100d56000396000f3fe608060405234801561001057600080fd5b506004361061002b5760003560e01c80635cd25e5314610030575b600080fd5b6100b16004803603604081101561004657600080fd5b810190808035906020019064010000000081111561006357600080fd5b82018360208201111561007557600080fd5b8035906020019184600183028401116401000000008311171561009757600080fd5b9091929391929390803590602001909291905050506100b3565b005b6000809054906101000a900473ffffffffffffffffffffffffffffffffffffffff1673ffffffffffffffffffffffffffffffffffffffff163373ffffffffffffffffffffffffffffffffffffffff1614610175576040517f08c379a000000000000000000000000000000000000000000000000000000000815260040180806020018281038252601c8152602001807f43616c6c6572206973206e6f7420636f6e7472616374206f776e65720000000081525060200191505060405180910390fd5b600160009054906101000a900473ffffffffffffffffffffffffffffffffffffffff1673ffffffffffffffffffffffffffffffffffffffff166356b35dd58484846101bf8661024b565b6040518563ffffffff1660e01b815260040180806020018481526020018381526020018281038252868682818152602001925080828437600081840152601f19601f82011690508083019250505095505050505050600060405180830381600087803b15801561022e57600080fd5b505af1158015610242573d6000803e3d6000fd5b50505050505050565b60008060009054906101000a900473ffffffffffffffffffffffffffffffffffffffff1673ffffffffffffffffffffffffffffffffffffffff163373ffffffffffffffffffffffffffffffffffffffff161461030f576040517f08c379a000000000000000000000000000000000000000000000000000000000815260040180806020018281038252601c8152602001807f43616c6c6572206973206e6f7420636f6e7472616374206f776e65720000000081525060200191505060405180910390fd5b60648210156103465761033f60646103316005856103ad90919063ffffffff16565b61043390919063ffffffff16565b90506103a8565b6101f482101561037e5761037760646103696007856103ad90919063ffffffff16565b61043390919063ffffffff16565b90506103a8565b6103a56064610397600a856103ad90919063ffffffff16565b61043390919063ffffffff16565b90505b919050565b6000808314156103c0576000905061042d565b60008284029050828482816103d157fe5b0414610428576040517f08c379a00000000000000000000000000000000000000000000000000000000081526004018080602001828103825260218152602001806105446021913960400191505060405180910390fd5b809150505b92915050565b600061047583836040518060400160405280601a81526020017f536166654d6174683a206469766973696f6e206279207a65726f00000000000081525061047d565b905092915050565b60008083118290610529576040517f08c379a00000000000000000000000000000000000000000000000000000000081526004018080602001828103825283818151815260200191508051906020019080838360005b838110156104ee5780820151818401526020810190506104d3565b50505050905090810190601f16801561051b5780820380516001836020036101000a031916815260200191505b509250505060405180910390fd5b50600083858161053557fe5b04905080915050939250505056fe536166654d6174683a206d756c7469706c69636174696f6e206f766572666c6f77a265627a7a72315820c275e4f788e0173ad61dc9d9ac7e6e5aa55cdb08bb382cd41eee089d89a7ba0f64736f6c63430005100032",
  "source": "pragma solidity >=0.5.0 <0.7.0;\r\n\r\n// It's important to avoid vulnerabilities due to numeric overflow bugs\r\n// OpenZeppelin's SafeMath library, when used correctly, protects agains such bugs\r\n// More info: https://www.nccgroup.trust/us/about-us/newsroom-and-events/blog/2018/november/smart-contract-insecurity-bad-arithmetic/\r\n\r\nimport \"../../node_modules/@openzeppelin/contracts/math/SafeMath.sol\";\r\n\r\n\r\ncontract ExerciseC6CApp {\r\n    using SafeMath for uint256; // Allow SafeMath functions to be called for all uint256 types (similar to \"prototype\" in Javascript)\r\n\r\n    address private contractOwner;              // Account used to deploy contract\r\n    ExerciseC6C exerciseC6C;\r\n\r\n    modifier requireContractOwner() {\r\n        require(msg.sender == contractOwner, \"Caller is not contract owner\");\r\n        _;\r\n    }\r\n\r\n    constructor(address dataContract) public {\r\n        contractOwner = msg.sender;\r\n        exerciseC6C = ExerciseC6C(dataContract);\r\n    }\r\n\r\n    function calculateBonus(uint256 sales) internal view requireContractOwner returns(uint256) {\r\n        if(sales < 100) {\r\n            return sales.mul(5).div(100);\r\n        }else if(sales < 500) {\r\n            return sales.mul(7).div(100);\r\n        }else {\r\n            return sales.mul(10).div(100);\r\n        }\r\n    }\r\n\r\n    function addSale(string calldata id, uint256 amount) external requireContractOwner {\r\n        exerciseC6C.updateEmployee(id, amount, calculateBonus(amount));\r\n    }\r\n}\r\n\r\ncontract ExerciseC6C {\r\n    function updateEmployee(string calldata id, uint256 sales, uint256 bonus) external;\r\n}",
  "sourcePath": "C:/Users/admin/UdacityProject/UdacityProject6/contracts/ExerciseC6C/ExerciseC6CApp.sol",
  "compiler": {
    "name": "solc",
    "version": "0.5.16+commit.9c3226ce.Emscripten.clang"
  },
  "schemaVersion": "3.0.22",
  "updatedAt": "2020-04-07T12:18:31.761Z",
  "devdoc": {
    "methods": {}
  },
  "userdoc": {
    "methods": {}
  }
}