{
  "contractName": "ExerciseC6A",
  "abi": [
    {
      "inputs": [],
      "payable": false,
      "stateMutability": "nonpayable",
      "type": "constructor"
    },
    {
      "constant": true,
      "inputs": [
        {
          "internalType": "address",
          "name": "account",
          "type": "address"
        }
      ],
      "name": "isUserRegistered",
      "outputs": [
        {
          "internalType": "bool",
          "name": "",
          "type": "bool"
        }
      ],
      "payable": false,
      "stateMutability": "view",
      "type": "function"
    },
    {
      "constant": true,
      "inputs": [],
      "name": "isOperational",
      "outputs": [
        {
          "internalType": "bool",
          "name": "",
          "type": "bool"
        }
      ],
      "payable": false,
      "stateMutability": "view",
      "type": "function"
    },
    {
      "constant": false,
      "inputs": [
        {
          "internalType": "address",
          "name": "account",
          "type": "address"
        },
        {
          "internalType": "bool",
          "name": "isAdmin",
          "type": "bool"
        }
      ],
      "name": "registerUser",
      "outputs": [],
      "payable": false,
      "stateMutability": "nonpayable",
      "type": "function"
    },
    {
      "constant": false,
      "inputs": [
        {
          "internalType": "bool",
          "name": "mode",
          "type": "bool"
        }
      ],
      "name": "setOperatingStatus",
      "outputs": [],
      "payable": false,
      "stateMutability": "nonpayable",
      "type": "function"
    }
  ],
  "bytecode": "0x608060405260006040519080825280602002602001820160405280156100345781602001602082028038833980820191505090505b506000908051906020019061004a9291906100b9565b506001600360006101000a81548160ff02191690831515021790555034801561007257600080fd5b5033600160006101000a81548173ffffffffffffffffffffffffffffffffffffffff021916908373ffffffffffffffffffffffffffffffffffffffff160217905550610186565b828054828255906000526020600020908101928215610132579160200282015b828111156101315782518260006101000a81548173ffffffffffffffffffffffffffffffffffffffff021916908373ffffffffffffffffffffffffffffffffffffffff160217905550916020019190600101906100d9565b5b50905061013f9190610143565b5090565b61018391905b8082111561017f57600081816101000a81549073ffffffffffffffffffffffffffffffffffffffff021916905550600101610149565b5090565b90565b610a8d806101956000396000f3fe608060405234801561001057600080fd5b506004361061004c5760003560e01c8063110466ed14610051578063163f752214610081578063951faf00146100dd578063cd905dff1461012d575b600080fd5b61007f6004803603602081101561006757600080fd5b8101908080351515906020019092919050505061014f565b005b6100c36004803603602081101561009757600080fd5b81019080803573ffffffffffffffffffffffffffffffffffffffff16906020019092919050505061056f565b604051808215151515815260200191505060405180910390f35b61012b600480360360408110156100f357600080fd5b81019080803573ffffffffffffffffffffffffffffffffffffffff16906020019092919080351515906020019092919050505061064d565b005b6101356108d8565b604051808215151515815260200191505060405180910390f35b600360009054906101000a900460ff166101b4576040517f08c379a0000000000000000000000000000000000000000000000000000000008152600401808060200182810382526025815260200180610a346025913960400191505060405180910390fd5b600160009054906101000a900473ffffffffffffffffffffffffffffffffffffffff1673ffffffffffffffffffffffffffffffffffffffff163373ffffffffffffffffffffffffffffffffffffffff1614610277576040517f08c379a000000000000000000000000000000000000000000000000000000000815260040180806020018281038252601c8152602001807f43616c6c6572206973206e6f7420636f6e7472616374206f776e65720000000081525060200191505060405180910390fd5b600360009054906101000a900460ff16151581151514156102e3576040517f08c379a000000000000000000000000000000000000000000000000000000000815260040180806020018281038252602d8152602001806109e5602d913960400191505060405180910390fd5b600260003373ffffffffffffffffffffffffffffffffffffffff1673ffffffffffffffffffffffffffffffffffffffff16815260200190815260200160002060000160019054906101000a900460ff166103a5576040517f08c379a00000000000000000000000000000000000000000000000000000000081526004018080602001828103825260168152602001807f43616c6c6572206973206e6f7420616e2061646d696e0000000000000000000081525060200191505060405180910390fd5b600080905060008090505b60008054905081101561043e573373ffffffffffffffffffffffffffffffffffffffff16600082815481106103e157fe5b9060005260206000200160009054906101000a900473ffffffffffffffffffffffffffffffffffffffff1673ffffffffffffffffffffffffffffffffffffffff161415610431576001915061043e565b80806001019150506103b0565b508015610496576040517f08c379a00000000000000000000000000000000000000000000000000000000081526004018080602001828103825260288152602001806109bd6028913960400191505060405180910390fd5b60003390806001815401808255809150509060018203906000526020600020016000909192909190916101000a81548173ffffffffffffffffffffffffffffffffffffffff021916908373ffffffffffffffffffffffffffffffffffffffff1602179055505060026000805490501061056b5781600360006101000a81548160ff02191690831515021790555060006040519080825280602002602001820160405280156105535781602001602082028038833980820191505090505b50600090805190602001906105699291906108ef565b505b5050565b60008073ffffffffffffffffffffffffffffffffffffffff168273ffffffffffffffffffffffffffffffffffffffff1614156105f6576040517f08c379a0000000000000000000000000000000000000000000000000000000008152600401808060200182810382526022815260200180610a126022913960400191505060405180910390fd5b600260008373ffffffffffffffffffffffffffffffffffffffff1673ffffffffffffffffffffffffffffffffffffffff16815260200190815260200160002060000160009054906101000a900460ff169050919050565b600360009054906101000a900460ff166106b2576040517f08c379a0000000000000000000000000000000000000000000000000000000008152600401808060200182810382526025815260200180610a346025913960400191505060405180910390fd5b600160009054906101000a900473ffffffffffffffffffffffffffffffffffffffff1673ffffffffffffffffffffffffffffffffffffffff163373ffffffffffffffffffffffffffffffffffffffff1614610775576040517f08c379a000000000000000000000000000000000000000000000000000000000815260040180806020018281038252601c8152602001807f43616c6c6572206973206e6f7420636f6e7472616374206f776e65720000000081525060200191505060405180910390fd5b600260008373ffffffffffffffffffffffffffffffffffffffff1673ffffffffffffffffffffffffffffffffffffffff16815260200190815260200160002060000160009054906101000a900460ff1615610838576040517f08c379a000000000000000000000000000000000000000000000000000000000815260040180806020018281038252601b8152602001807f5573657220697320616c726561647920726567697374657265642e000000000081525060200191505060405180910390fd5b6040518060400160405280600115158152602001821515815250600260008473ffffffffffffffffffffffffffffffffffffffff1673ffffffffffffffffffffffffffffffffffffffff16815260200190815260200160002060008201518160000160006101000a81548160ff02191690831515021790555060208201518160000160016101000a81548160ff0219169083151502179055509050505050565b6000600360009054906101000a900460ff16905090565b828054828255906000526020600020908101928215610968579160200282015b828111156109675782518260006101000a81548173ffffffffffffffffffffffffffffffffffffffff021916908373ffffffffffffffffffffffffffffffffffffffff1602179055509160200191906001019061090f565b5b5090506109759190610979565b5090565b6109b991905b808211156109b557600081816101000a81549073ffffffffffffffffffffffffffffffffffffffff02191690555060010161097f565b5090565b9056fe43616c6c65722068617320616c72656164792063616c6c656420746869732066756e6374696f6e2e4e6577206d6f6465206d75737420626520646966666572656e742066726f6d206578697374696e67206d6f6465276163636f756e7427206d75737420626520612076616c696420616464726573732e436f6e74726163742069732063757272656e746c79206e6f74206f7065726174696f6e616ca265627a7a7231582040308b75fb6f523e3f7c5e0c082c319b78a3d11a98615d93556fe0cc6d1a56c564736f6c63430005100032",
  "source": "pragma solidity >=0.5.0 <0.7.0;\r\n\r\ncontract ExerciseC6A {\r\n\r\n    /********************************************************************************************/\r\n    /*                                       DATA VARIABLES                                     */\r\n    /********************************************************************************************/\r\n\r\n    uint constant M = 2;\r\n    address[] multiCalls = new address[](0);\r\n\r\n    struct UserProfile {\r\n        bool isRegistered;\r\n        bool isAdmin;\r\n    }\r\n\r\n    address private contractOwner;                  // Account used to deploy contract\r\n    mapping(address => UserProfile) userProfiles;   // Mapping for storing user profiles\r\n\r\n    bool private operational = true;\r\n\r\n    /********************************************************************************************/\r\n    /*                                       EVENT DEFINITIONS                                  */\r\n    /********************************************************************************************/\r\n\r\n    // No events\r\n\r\n    /**\r\n    * @dev Constructor\r\n    *      The deploying account becomes contractOwner\r\n    */\r\n    constructor() public {\r\n        contractOwner = msg.sender;\r\n    }\r\n\r\n    /********************************************************************************************/\r\n    /*                                       FUNCTION MODIFIERS                                 */\r\n    /********************************************************************************************/\r\n\r\n    // Modifiers help avoid duplication of code. They are typically used to validate something\r\n    // before a function is allowed to be executed.\r\n\r\n    /**\r\n    * @dev Modifier that requires the \"ContractOwner\" account to be the function caller\r\n    */\r\n    modifier requireContractOwner() {\r\n        require(msg.sender == contractOwner, \"Caller is not contract owner\");\r\n        _;\r\n    }\r\n\r\n    /**\r\n    * @dev Modifier that requires the \"operational\" boolean variable to be \"true\"\r\n    *      This is used on all state changing functions to pause the contract in\r\n    *      the event there is an issue that needs to be fixed\r\n    */\r\n    modifier requireIsOperational() {\r\n        require(operational, \"Contract is currently not operational\");\r\n        _;  // All modifiers require an \"_\" which indicates where the function body will be added\r\n    }\r\n\r\n    /********************************************************************************************/\r\n    /*                                       UTILITY FUNCTIONS                                  */\r\n    /********************************************************************************************/\r\n\r\n   /**\r\n    * @dev Check if a user is registered\r\n    *\r\n    * @return A bool that indicates if the user is registered\r\n    */\r\n    function isUserRegistered(address account) external view returns(bool) {\r\n        require(account != address(0), \"'account' must be a valid address.\");\r\n        return userProfiles[account].isRegistered;\r\n    }\r\n\r\n    /**\r\n    * @dev Get operating status of contract\r\n    *\r\n    * @return A bool that is the current operating status\r\n    */\r\n    function isOperational() public view returns(bool) {\r\n        return operational;\r\n    }\r\n\r\n    /********************************************************************************************/\r\n    /*                                     SMART CONTRACT FUNCTIONS                             */\r\n    /********************************************************************************************/\r\n\r\n    function registerUser(address account, bool isAdmin) external requireIsOperational requireContractOwner {\r\n        require(!userProfiles[account].isRegistered, \"User is already registered.\");\r\n        userProfiles[account] = UserProfile({isRegistered: true, isAdmin: isAdmin});\r\n    }\r\n\r\n    /**\r\n    * @dev Sets contract operations on/off\r\n    *\r\n    * When operational mode is disabled, all write transactions except for this one will fail\r\n    */\r\n    function setOperatingStatus(bool mode) external requireIsOperational requireContractOwner {\r\n        require(mode != operational, \"New mode must be different from existing mode\");\r\n        require(userProfiles[msg.sender].isAdmin, \"Caller is not an admin\");\r\n\r\n        bool isDuplicate = false;\r\n        for(uint c = 0; c < multiCalls.length; c++) {\r\n            if (multiCalls[c] == msg.sender) {\r\n                isDuplicate = true;\r\n                break;\r\n            }\r\n        }\r\n        require(!isDuplicate, \"Caller has already called this function.\");\r\n\r\n        multiCalls.push(msg.sender);\r\n        if (multiCalls.length >= M) {\r\n            operational = mode;\r\n            multiCalls = new address[](0);\r\n        }\r\n    }\r\n}",
  "sourcePath": "C:/Users/admin/BlockchainDeveloperProject/UdacityProject6/contracts/ExerciseC6A.sol",
  "compiler": {
    "name": "solc",
    "version": "0.5.16+commit.9c3226ce.Emscripten.clang"
  },
  "schemaVersion": "3.0.22",
  "updatedAt": "2020-02-20T12:21:08.973Z",
  "devdoc": {
    "methods": {
      "constructor": {
        "details": "Constructor     The deploying account becomes contractOwner"
      },
      "isOperational()": {
        "details": "Get operating status of contract ",
        "return": "A bool that is the current operating status"
      },
      "isUserRegistered(address)": {
        "details": "Check if a user is registered ",
        "return": "A bool that indicates if the user is registered"
      },
      "setOperatingStatus(bool)": {
        "details": "Sets contract operations on/off     * When operational mode is disabled, all write transactions except for this one will fail"
      }
    }
  },
  "userdoc": {
    "methods": {
      "registerUser(address,bool)": {
        "notice": "*****************************************************************************************"
      }
    }
  }
}