{
  "contractName": "ExerciseC6D",
  "abi": [
    {
      "inputs": [],
      "payable": false,
      "stateMutability": "nonpayable",
      "type": "constructor"
    },
    {
      "anonymous": false,
      "inputs": [
        {
          "indexed": false,
          "internalType": "string",
          "name": "flight",
          "type": "string"
        },
        {
          "indexed": false,
          "internalType": "uint256",
          "name": "timestamp",
          "type": "uint256"
        },
        {
          "indexed": false,
          "internalType": "uint8",
          "name": "status",
          "type": "uint8"
        },
        {
          "indexed": false,
          "internalType": "bool",
          "name": "verified",
          "type": "bool"
        }
      ],
      "name": "FlightStatusInfo",
      "type": "event"
    },
    {
      "anonymous": false,
      "inputs": [
        {
          "indexed": false,
          "internalType": "uint8",
          "name": "index",
          "type": "uint8"
        },
        {
          "indexed": false,
          "internalType": "string",
          "name": "flight",
          "type": "string"
        },
        {
          "indexed": false,
          "internalType": "uint256",
          "name": "timestamp",
          "type": "uint256"
        }
      ],
      "name": "OracleRequest",
      "type": "event"
    },
    {
      "constant": true,
      "inputs": [],
      "name": "REGISTRATION_FEE",
      "outputs": [
        {
          "internalType": "uint256",
          "name": "",
          "type": "uint256"
        }
      ],
      "payable": false,
      "stateMutability": "view",
      "type": "function"
    },
    {
      "constant": false,
      "inputs": [],
      "name": "registerOracle",
      "outputs": [],
      "payable": true,
      "stateMutability": "payable",
      "type": "function"
    },
    {
      "constant": true,
      "inputs": [
        {
          "internalType": "address",
          "name": "account",
          "type": "address"
        }
      ],
      "name": "getOracle",
      "outputs": [
        {
          "internalType": "uint8[3]",
          "name": "",
          "type": "uint8[3]"
        }
      ],
      "payable": false,
      "stateMutability": "view",
      "type": "function"
    },
    {
      "constant": false,
      "inputs": [
        {
          "internalType": "string",
          "name": "flight",
          "type": "string"
        },
        {
          "internalType": "uint256",
          "name": "timestamp",
          "type": "uint256"
        }
      ],
      "name": "fetchFlightStatus",
      "outputs": [],
      "payable": false,
      "stateMutability": "nonpayable",
      "type": "function"
    },
    {
      "constant": false,
      "inputs": [
        {
          "internalType": "uint8",
          "name": "index",
          "type": "uint8"
        },
        {
          "internalType": "string",
          "name": "flight",
          "type": "string"
        },
        {
          "internalType": "uint256",
          "name": "timestamp",
          "type": "uint256"
        },
        {
          "internalType": "uint8",
          "name": "statusId",
          "type": "uint8"
        }
      ],
      "name": "submitOracleResponse",
      "outputs": [],
      "payable": false,
      "stateMutability": "nonpayable",
      "type": "function"
    },
    {
      "constant": true,
      "inputs": [
        {
          "internalType": "string",
          "name": "flight",
          "type": "string"
        },
        {
          "internalType": "uint256",
          "name": "timestamp",
          "type": "uint256"
        }
      ],
      "name": "viewFlightStatus",
      "outputs": [
        {
          "internalType": "uint8",
          "name": "",
          "type": "uint8"
        }
      ],
      "payable": false,
      "stateMutability": "view",
      "type": "function"
    }
  ],
  "bytecode": "0x608060405260008060146101000a81548160ff021916908360ff16021790555034801561002b57600080fd5b50336000806101000a81548173ffffffffffffffffffffffffffffffffffffffff021916908373ffffffffffffffffffffffffffffffffffffffff1602179055506110fa8061007b6000396000f3fe6080604052600436106100555760003560e01c806310d3d22e1461005a578063339d2590146100e757806364b4f751146100f15780637b91ce381461011c5780638ec0268b146101ac578063dc7044e114610256575b600080fd5b34801561006657600080fd5b506100a96004803603602081101561007d57600080fd5b81019080803573ffffffffffffffffffffffffffffffffffffffff169060200190929190505050610300565b6040518082600360200280838360005b838110156100d45780820151818401526020810190506100b9565b5050505090500191505060405180910390f35b6100ef610472565b005b3480156100fd57600080fd5b50610106610555565b6040518082815260200191505060405180910390f35b34801561012857600080fd5b506101aa6004803603604081101561013f57600080fd5b810190808035906020019064010000000081111561015c57600080fd5b82018360208201111561016e57600080fd5b8035906020019184600183028401116401000000008311171561019057600080fd5b909192939192939080359060200190929190505050610561565b005b3480156101b857600080fd5b50610254600480360360808110156101cf57600080fd5b81019080803560ff169060200190929190803590602001906401000000008111156101f957600080fd5b82018360208201111561020b57600080fd5b8035906020019184600183028401116401000000008311171561022d57600080fd5b909192939192939080359060200190929190803560ff1690602001909291905050506106e6565b005b34801561026257600080fd5b506102e46004803603604081101561027957600080fd5b810190808035906020019064010000000081111561029657600080fd5b8201836020820111156102a857600080fd5b803590602001918460018302840111640100000000831117156102ca57600080fd5b909192939192939080359060200190929190505050610c0b565b604051808260ff1660ff16815260200191505060405180910390f35b610308610f87565b6000809054906101000a900473ffffffffffffffffffffffffffffffffffffffff1673ffffffffffffffffffffffffffffffffffffffff163373ffffffffffffffffffffffffffffffffffffffff16146103ca576040517f08c379a000000000000000000000000000000000000000000000000000000000815260040180806020018281038252601c8152602001807f43616c6c6572206973206e6f7420636f6e7472616374206f776e65720000000081525060200191505060405180910390fd5b600160008373ffffffffffffffffffffffffffffffffffffffff1673ffffffffffffffffffffffffffffffffffffffff168152602001908152602001600020600380602002604051908101604052809291908260038015610466576020028201916000905b82829054906101000a900460ff1660ff168152602001906001019060208260000104928301926001038202915080841161042f5790505b50505050509050919050565b670de0b6b3a76400003410156104f0576040517f08c379a000000000000000000000000000000000000000000000000000000000815260040180806020018281038252601a8152602001807f526567697374726174696f6e20666565206973206e656564656400000000000081525060200191505060405180910390fd5b6104f8610f87565b61050133610d0c565b905080600160003373ffffffffffffffffffffffffffffffffffffffff1673ffffffffffffffffffffffffffffffffffffffff168152602001908152602001600020906003610551929190610fa9565b5050565b670de0b6b3a764000081565b600061056c33610e98565b9050600081858585604051602001808560ff1660ff1660f81b81526001018484808284378083019250505082815260200194505050505060405160208183030381529060405280519060200120905060405180604001604052803373ffffffffffffffffffffffffffffffffffffffff168152602001600115158152506002600083815260200190815260200160002060008201518160000160006101000a81548173ffffffffffffffffffffffffffffffffffffffff021916908373ffffffffffffffffffffffffffffffffffffffff16021790555060208201518160000160146101000a81548160ff0219169083151502179055509050507f33cc1dc817476a865477242f5d168e635bcd483a67e12e1ebde698e1a9ec023a82868686604051808560ff1660ff168152602001806020018381526020018281038252858582818152602001925080828437600081840152601f19601f8201169050808301925050509550505050505060405180910390a15050505050565b8460ff16600160003373ffffffffffffffffffffffffffffffffffffffff1673ffffffffffffffffffffffffffffffffffffffff16815260200190815260200160002060006003811061073557fe5b602091828204019190069054906101000a900460ff1660ff1614806107bf57508460ff16600160003373ffffffffffffffffffffffffffffffffffffffff1673ffffffffffffffffffffffffffffffffffffffff1681526020019081526020016000206001600381106107a457fe5b602091828204019190069054906101000a900460ff1660ff16145b8061082f57508460ff16600160003373ffffffffffffffffffffffffffffffffffffffff1673ffffffffffffffffffffffffffffffffffffffff16815260200190815260200160002060026003811061081457fe5b602091828204019190069054906101000a900460ff1660ff16145b610884576040517f08c379a00000000000000000000000000000000000000000000000000000000081526004018080602001828103825260238152602001806110a36023913960400191505060405180910390fd5b600085858585604051602001808560ff1660ff1660f81b8152600101848480828437808301925050508281526020019450505050506040516020818303038152906040528051906020012090506002600082815260200190815260200160002060000160149054906101000a900460ff1661094a576040517f08c379a000000000000000000000000000000000000000000000000000000000815260040180806020018281038252602f815260200180611074602f913960400191505060405180910390fd5b6002600082815260200190815260200160002060010160008360ff1660ff1681526020019081526020016000203390806001815401808255809150509060018203906000526020600020016000909192909190916101000a81548173ffffffffffffffffffffffffffffffffffffffff021916908373ffffffffffffffffffffffffffffffffffffffff1602179055505060036002600083815260200190815260200160002060010160008460ff1660ff1681526020019081526020016000208054905010610b7c5760006002600083815260200190815260200160002060000160146101000a81548160ff0219169083151502179055507f2f1c265a6c6abb151887cacc1fd693a4c8dc417f3f955372b3632cdbc5ed7a4185858585600160405180806020018581526020018460ff1660ff168152602001831515151581526020018281038252878782818152602001925080828437600081840152601f19601f820116905080830192505050965050505050505060405180910390a160008585856040516020018084848082843780830192505050828152602001935050505060405160208183030381529060405280519060200120905060405180604001604052806001151581526020018460ff168152506003600083815260200190815260200160002060008201518160000160006101000a81548160ff02191690831515021790555060208201518160000160016101000a81548160ff021916908360ff16021790555090505050610c03565b7f2f1c265a6c6abb151887cacc1fd693a4c8dc417f3f955372b3632cdbc5ed7a4185858585600060405180806020018581526020018460ff1660ff168152602001831515151581526020018281038252878782818152602001925080828437600081840152601f19601f820116905080830192505050965050505050505060405180910390a15b505050505050565b600080848484604051602001808484808284378083019250505082815260200193505050506040516020818303038152906040528051906020012090506003600082815260200190815260200160002060000160009054906101000a900460ff16610cde576040517f08c379a000000000000000000000000000000000000000000000000000000000815260040180806020018281038252601b8152602001807f466c6967687420737461747573206e6f7420617661696c61626c65000000000081525060200191505060405180910390fd5b6003600082815260200190815260200160002060000160019054906101000a900460ff169150509392505050565b610d14610f87565b610d1c610f87565b610d2583610e98565b81600060038110610d3257fe5b602002019060ff16908160ff168152505080600060038110610d5057fe5b602002015181600160038110610d6257fe5b602002019060ff16908160ff16815250505b80600060038110610d8157fe5b602002015160ff1681600160038110610d9657fe5b602002015160ff161415610dd057610dad83610e98565b81600160038110610dba57fe5b602002019060ff16908160ff1681525050610d74565b80600160038110610ddd57fe5b602002015181600260038110610def57fe5b602002019060ff16908160ff16815250505b80600060038110610e0e57fe5b602002015160ff1681600260038110610e2357fe5b602002015160ff161480610e5e575080600160038110610e3f57fe5b602002015160ff1681600260038110610e5457fe5b602002015160ff16145b15610e8f57610e6c83610e98565b81600260038110610e7957fe5b602002019060ff16908160ff1681525050610e01565b80915050919050565b600080600a905060008160ff166000601481819054906101000a900460ff168092919060010191906101000a81548160ff021916908360ff16021790555060ff1643034085604051602001808381526020018273ffffffffffffffffffffffffffffffffffffffff1673ffffffffffffffffffffffffffffffffffffffff1660601b8152601401925050506040516020818303038152906040528051906020012060001c81610f4357fe5b06905060fa600060149054906101000a900460ff1660ff161115610f7d5760008060146101000a81548160ff021916908360ff1602179055505b8092505050919050565b6040518060600160405280600390602082028038833980820191505090505090565b826003601f016020900481019282156110325791602002820160005b8382111561100357835183826101000a81548160ff021916908360ff1602179055509260200192600101602081600001049283019260010302610fc5565b80156110305782816101000a81549060ff0219169055600101602081600001049283019260010302611003565b505b50905061103f9190611043565b5090565b61107091905b8082111561106c57600081816101000a81549060ff021916905550600101611049565b5090565b9056fe466c69676874206f722074696d657374616d7020646f206e6f74206d61746368206f7261636c652072657175657374496e64657820646f6573206e6f74206d61746368206f7261636c652072657175657374a265627a7a7231582021e1bf8c758837de70f2474c8929a110f9143853b7ca0b97dc9105fadd0d33a564736f6c63430005100032",
  "source": "pragma solidity >=0.5.0 <0.7.0;\r\n\r\n// It's important to avoid vulnerabilities due to numeric overflow bugs\r\n// OpenZeppelin's SafeMath library, when used correctly, protects agains such bugs\r\n// More info: https://www.nccgroup.trust/us/about-us/newsroom-and-events/blog/2018/november/smart-contract-insecurity-bad-arithmetic/\r\n\r\nimport \"../../node_modules/@openzeppelin/contracts/math/SafeMath.sol\";\r\n\r\ncontract ExerciseC6D {\r\n    using SafeMath for uint256; // Allow SafeMath functions to be called for all uint256 types (similar to \"prototype\" in Javascript)\r\n\r\n    address private contractOwner;                  // Account used to deploy contract\r\n\r\n    // Incremented to add pseudo-randomness at various points\r\n    uint8 private nonce = 0;\r\n\r\n    // Fee to be paid when registering oracle\r\n    uint256 public constant REGISTRATION_FEE = 1 ether;\r\n\r\n    // Number of oracles that must respond for valid status\r\n    uint256 private constant MIN_RESPONSES = 3;\r\n\r\n    // Status codes returned by oracles\r\n    uint8 private constant ON_TIME = 10;\r\n    uint8 private constant NOT_ON_TIME = 99;\r\n\r\n    // Track all registered oracles\r\n    mapping(address => uint8[3]) private oracles;\r\n\r\n    // Model for responses from oracles\r\n    struct ResponseInfo {\r\n        address requester;                              // Account that requested status\r\n        bool isOpen;                                    // If open, oracle responses are accepted\r\n        mapping(uint8 => address[]) responses;          // Mapping key is the status code reported\r\n                                                        // This lets us group responses and identify\r\n                                                        // the response that majority of the oracles\r\n                                                        // submit\r\n    }\r\n\r\n    // Track all oracle responses\r\n    // Key = hash(index, flight, timestamp)\r\n    mapping(bytes32 => ResponseInfo) private oracleResponses;\r\n\r\n    // Event fired each time an oracle submits a response\r\n    event FlightStatusInfo(string flight, uint256 timestamp, uint8 status, bool verified);\r\n\r\n    // Flight data persisted forever\r\n    struct FlightStatus {\r\n        bool hasStatus;\r\n        uint8 status;\r\n    }\r\n    mapping(bytes32 => FlightStatus) flights;\r\n\r\n    constructor() public {\r\n        contractOwner = msg.sender;\r\n    }\r\n\r\n    /********************************************************************************************/\r\n    /*                                       FUNCTION MODIFIERS                                 */\r\n    /********************************************************************************************/\r\n\r\n    modifier requireContractOwner() {\r\n        require(msg.sender == contractOwner, \"Caller is not contract owner\");\r\n        _;\r\n    }\r\n\r\n    /********************************************************************************************/\r\n    /*                                     SMART CONTRACT FUNCTIONS                             */\r\n    /********************************************************************************************/\r\n\r\n    /*********************************** BEGIN: Oracle Registration ***********************************/\r\n\r\n    // STAGE ONE: ORACLES REGISTER WITH THE SMART CONTRACT\r\n\r\n    // Register an oracle with the contract\r\n    function registerOracle() external payable {\r\n        // CODE EXERCISE 1: Require registration fee\r\n        /* Enter code here */\r\n        require(msg.value >= REGISTRATION_FEE, \"Registration fee is needed\");\r\n\r\n        // CODE EXERCISE 1: Generate three random indexes (range 0-9) using generateIndexes for the calling oracle\r\n        /* Enter code here */\r\n        uint8[3] memory indexes = generateIndexes(msg.sender);\r\n\r\n        // CODE EXERCISE 1: Assign the indexes to the oracle and save to the contract state\r\n        /* Enter code here */\r\n        oracles[msg.sender] = indexes;\r\n    }\r\n\r\n    function getOracle(address account) external view requireContractOwner returns(uint8[3] memory) {\r\n        return oracles[account];\r\n    }\r\n\r\n    /************************************ END: Oracle Registration ************************************/\r\n\r\n\r\n\r\n    /************************************ BEGIN: Oracle Data Request ************************************/\r\n\r\n    // STAGE TWO: ORACLES ARE RANDOMLY CHOSEN TO FETCH INFORMATION\r\n\r\n\r\n    // Event fired when flight status request is submitted\r\n    // Oracles track this and if they have a matching index\r\n    // they fetch data and submit a response\r\n    event OracleRequest(uint8 index, string flight, uint256 timestamp);\r\n\r\n\r\n    // Generate a request\r\n    function fetchFlightStatus(string calldata flight, uint256 timestamp) external {\r\n        // Generate a number between 0 - 9 to determine which oracles may respond\r\n\r\n        // CODE EXERCISE 2: Replace the hard-coded value of index with a random index based on the calling account\r\n        uint8 index = getRandomIndex(msg.sender);\r\n\r\n        // Generate a unique key for storing the request\r\n        bytes32 key = keccak256(abi.encodePacked(index, flight, timestamp));\r\n        oracleResponses[key] = ResponseInfo({\r\n            requester: msg.sender,\r\n            isOpen: true\r\n        });\r\n\r\n        // CODE EXERCISE 2: Notify oracles that match the index value that they need to fetch flight status\r\n        emit OracleRequest(index, flight, timestamp);\r\n    }\r\n\r\n    /************************************ END: Oracle Data Request ************************************/\r\n\r\n\r\n    /*********************************** BEGIN: Oracle Callback ***********************************/\r\n\r\n\r\n    // STAGE THREE: ORACLES SUBMIT INFORMATION\r\n\r\n    // Called by oracle when a response is available to an outstanding request\r\n    // For the response to be accepted, there must be a pending request that is open\r\n    // and matches one of the three Indexes randomly assigned to the oracle at the\r\n    // time of registration (i.e. uninvited oracles are not welcome)\r\n    function submitOracleResponse(uint8 index, string calldata flight, uint256 timestamp, uint8 statusId) external {\r\n        require((oracles[msg.sender][0] == index) || (oracles[msg.sender][1] == index) || (oracles[msg.sender][2] == index),\r\n            \"Index does not match oracle request\");\r\n\r\n        // CODE EXERCISE 3: Require that the response is being submitted for a request that is still open\r\n        bytes32 key = keccak256(abi.encodePacked(index, flight, timestamp));\r\n        require(oracleResponses[key].isOpen, \"Flight or timestamp do not match oracle request\");\r\n\r\n        oracleResponses[key].responses[statusId].push(msg.sender);\r\n\r\n        // Information isn't considered verified until at least MIN_RESPONSES\r\n        // oracles respond with the *** same *** information\r\n        if (oracleResponses[key].responses[statusId].length >= MIN_RESPONSES) {\r\n\r\n            // CODE EXERCISE 3: Prevent any more responses since MIN_RESPONSE threshold has been reached\r\n            oracleResponses[key].isOpen = false;\r\n\r\n            // CODE EXERCISE 3: Announce to the world that verified flight status information is available\r\n            emit FlightStatusInfo(flight, timestamp, statusId, true);\r\n\r\n            // Save the flight information for posterity\r\n            bytes32 flightKey = keccak256(abi.encodePacked(flight, timestamp));\r\n            flights[flightKey] = FlightStatus(true, statusId);\r\n        } else {\r\n            // Oracle submitting response but MIN_RESPONSES threshold not yet reached\r\n\r\n            // CODE EXERCISE 3: Announce to the world that verified flight status information is available\r\n            emit FlightStatusInfo(flight, timestamp, statusId, false);\r\n        }\r\n    }\r\n\r\n    /************************************ END: Oracle Callback ************************************/\r\n\r\n\r\n\r\n\r\n    /************************************ BEGIN: Utility Functions ************************************/\r\n\r\n    // Query the status of any flight\r\n    function viewFlightStatus(string calldata flight, uint256 timestamp) external view returns(uint8) {\r\n        bytes32 flightKey = keccak256(abi.encodePacked(flight, timestamp));\r\n        require(flights[flightKey].hasStatus, \"Flight status not available\");\r\n        return flights[flightKey].status;\r\n    }\r\n\r\n\r\n    // Returns array of three non-duplicating integers from 0-9\r\n    function generateIndexes(address account) internal returns(uint8[3] memory) {\r\n        uint8[3] memory indexes;\r\n        indexes[0] = getRandomIndex(account);\r\n\r\n        indexes[1] = indexes[0];\r\n        while(indexes[1] == indexes[0]) {\r\n            indexes[1] = getRandomIndex(account);\r\n        }\r\n\r\n        indexes[2] = indexes[1];\r\n        while((indexes[2] == indexes[0]) || (indexes[2] == indexes[1])) {\r\n            indexes[2] = getRandomIndex(account);\r\n        }\r\n\r\n        return indexes;\r\n    }\r\n\r\n    // Returns array of three non-duplicating integers from 0-9\r\n    function getRandomIndex(address account) internal returns (uint8) {\r\n        uint8 maxValue = 10;\r\n\r\n        // Pseudo random number...the incrementing nonce adds variation\r\n        uint8 random = uint8(uint256(keccak256(abi.encodePacked(blockhash(block.number - nonce++), account))) % maxValue);\r\n\r\n        if (nonce > 250) {\r\n            nonce = 0;  // Can only fetch blockhashes for last 256 blocks so we adapt\r\n        }\r\n\r\n        return random;\r\n    }\r\n\r\n    /************************************ END: Utility Functions ************************************/\r\n}\r\n\r\n",
  "sourcePath": "C:/Users/admin/UdacityProject/UdacityProject6/contracts/ExerciseC6D/ExerciseC6D.sol",
  "compiler": {
    "name": "solc",
    "version": "0.5.16+commit.9c3226ce.Emscripten.clang"
  },
  "schemaVersion": "3.0.22",
  "updatedAt": "2020-04-08T08:17:37.850Z",
  "devdoc": {
    "methods": {}
  },
  "userdoc": {
    "methods": {
      "registerOracle()": {
        "notice": "********************************* BEGIN: Oracle Registration **********************************"
      },
      "submitOracleResponse(uint8,string,uint256,uint8)": {
        "notice": "********************************* BEGIN: Oracle Callback **********************************"
      },
      "viewFlightStatus(string,uint256)": {
        "notice": "********************************** BEGIN: Utility Functions ***********************************"
      }
    }
  }
}