{
  "contractName": "ExerciseC6A",
  "abi": [
    {
      "inputs": [],
      "payable": false,
      "stateMutability": "nonpayable",
      "type": "constructor"
    },
    {
      "constant": true,
      "inputs": [
        {
          "internalType": "address",
          "name": "account",
          "type": "address"
        }
      ],
      "name": "isUserRegistered",
      "outputs": [
        {
          "internalType": "bool",
          "name": "",
          "type": "bool"
        }
      ],
      "payable": false,
      "stateMutability": "view",
      "type": "function"
    },
    {
      "constant": false,
      "inputs": [
        {
          "internalType": "address",
          "name": "account",
          "type": "address"
        },
        {
          "internalType": "bool",
          "name": "isAdmin",
          "type": "bool"
        }
      ],
      "name": "registerUser",
      "outputs": [],
      "payable": false,
      "stateMutability": "nonpayable",
      "type": "function"
    }
  ],
  "bytecode": "0x608060405234801561001057600080fd5b50336000806101000a81548173ffffffffffffffffffffffffffffffffffffffff021916908373ffffffffffffffffffffffffffffffffffffffff160217905550610441806100606000396000f3fe608060405234801561001057600080fd5b50600436106100365760003560e01c8063163f75221461003b578063951faf0014610097575b600080fd5b61007d6004803603602081101561005157600080fd5b81019080803573ffffffffffffffffffffffffffffffffffffffff1690602001909291905050506100e7565b604051808215151515815260200191505060405180910390f35b6100e5600480360360408110156100ad57600080fd5b81019080803573ffffffffffffffffffffffffffffffffffffffff1690602001909291908035151590602001909291905050506101c5565b005b60008073ffffffffffffffffffffffffffffffffffffffff168273ffffffffffffffffffffffffffffffffffffffff16141561016e576040517f08c379a00000000000000000000000000000000000000000000000000000000081526004018080602001828103825260228152602001806103eb6022913960400191505060405180910390fd5b600160008373ffffffffffffffffffffffffffffffffffffffff1673ffffffffffffffffffffffffffffffffffffffff16815260200190815260200160002060000160009054906101000a900460ff169050919050565b6000809054906101000a900473ffffffffffffffffffffffffffffffffffffffff1673ffffffffffffffffffffffffffffffffffffffff163373ffffffffffffffffffffffffffffffffffffffff1614610287576040517f08c379a000000000000000000000000000000000000000000000000000000000815260040180806020018281038252601c8152602001807f43616c6c6572206973206e6f7420636f6e7472616374206f776e65720000000081525060200191505060405180910390fd5b600160008373ffffffffffffffffffffffffffffffffffffffff1673ffffffffffffffffffffffffffffffffffffffff16815260200190815260200160002060000160009054906101000a900460ff161561034a576040517f08c379a000000000000000000000000000000000000000000000000000000000815260040180806020018281038252601b8152602001807f5573657220697320616c726561647920726567697374657265642e000000000081525060200191505060405180910390fd5b6040518060400160405280600115158152602001821515815250600160008473ffffffffffffffffffffffffffffffffffffffff1673ffffffffffffffffffffffffffffffffffffffff16815260200190815260200160002060008201518160000160006101000a81548160ff02191690831515021790555060208201518160000160016101000a81548160ff021916908315150217905550905050505056fe276163636f756e7427206d75737420626520612076616c696420616464726573732ea265627a7a7231582009fd392dee1bb9f6628d28fcd91f871d688f34b4a0625be89cd5fd468b15af0a64736f6c63430005100032",
  "source": "pragma solidity ^0.5.0;\r\n\r\ncontract ExerciseC6A {\r\n\r\n    /********************************************************************************************/\r\n    /*                                       DATA VARIABLES                                     */\r\n    /********************************************************************************************/\r\n\r\n\r\n    struct UserProfile {\r\n        bool isRegistered;\r\n        bool isAdmin;\r\n    }\r\n\r\n    address private contractOwner;                  // Account used to deploy contract\r\n    mapping(address => UserProfile) userProfiles;   // Mapping for storing user profiles\r\n\r\n\r\n\r\n    /********************************************************************************************/\r\n    /*                                       EVENT DEFINITIONS                                  */\r\n    /********************************************************************************************/\r\n\r\n    // No events\r\n\r\n    /**\r\n    * @dev Constructor\r\n    *      The deploying account becomes contractOwner\r\n    */\r\n    constructor() public {\r\n        contractOwner = msg.sender;\r\n    }\r\n\r\n    /********************************************************************************************/\r\n    /*                                       FUNCTION MODIFIERS                                 */\r\n    /********************************************************************************************/\r\n\r\n    // Modifiers help avoid duplication of code. They are typically used to validate something\r\n    // before a function is allowed to be executed.\r\n\r\n    /**\r\n    * @dev Modifier that requires the \"ContractOwner\" account to be the function caller\r\n    */\r\n    modifier requireContractOwner()\r\n    {\r\n        require(msg.sender == contractOwner, \"Caller is not contract owner\");\r\n        _;\r\n    }\r\n\r\n    /********************************************************************************************/\r\n    /*                                       UTILITY FUNCTIONS                                  */\r\n    /********************************************************************************************/\r\n\r\n   /**\r\n    * @dev Check if a user is registered\r\n    *\r\n    * @return A bool that indicates if the user is registered\r\n    */   \r\n    function isUserRegistered\r\n                            (\r\n                                address account\r\n                            )\r\n                            external\r\n                            view\r\n                            returns(bool)\r\n    {\r\n        require(account != address(0), \"'account' must be a valid address.\");\r\n        return userProfiles[account].isRegistered;\r\n    }\r\n\r\n    /********************************************************************************************/\r\n    /*                                     SMART CONTRACT FUNCTIONS                             */\r\n    /********************************************************************************************/\r\n\r\n    function registerUser\r\n                                (\r\n                                    address account,\r\n                                    bool isAdmin\r\n                                )\r\n                                external\r\n                                requireContractOwner\r\n    {\r\n        require(!userProfiles[account].isRegistered, \"User is already registered.\");\r\n\r\n        userProfiles[account] = UserProfile({\r\n                                                isRegistered: true,\r\n                                                isAdmin: isAdmin\r\n                                            });\r\n    }\r\n}\r\n\r\n",
  "sourcePath": "C:/Users/admin/BlockchainDeveloperProject/Dapp with autonomous smart contracts and oracles/contracts/ExerciseC6A.sol",
  "compiler": {
    "name": "solc",
    "version": "0.5.16+commit.9c3226ce.Emscripten.clang"
  },
  "schemaVersion": "3.0.22",
  "updatedAt": "2020-02-15T07:35:50.078Z",
  "devdoc": {
    "methods": {
      "constructor": {
        "details": "Constructor     The deploying account becomes contractOwner"
      },
      "isUserRegistered(address)": {
        "details": "Check if a user is registered ",
        "return": "A bool that indicates if the user is registered"
      }
    }
  },
  "userdoc": {
    "methods": {
      "registerUser(address,bool)": {
        "notice": "*****************************************************************************************"
      }
    }
  }
}